{
  "contractName": "Memory",
  "abi": [
    {
      "constant": true,
      "inputs": [
        {
          "name": "",
          "type": "uint256"
        }
      ],
      "name": "memories",
      "outputs": [
        {
          "name": "id",
          "type": "uint256"
        },
        {
          "name": "title",
          "type": "string"
        },
        {
          "name": "date",
          "type": "string"
        },
        {
          "name": "description",
          "type": "string"
        },
        {
          "name": "photo",
          "type": "string"
        }
      ],
      "payable": false,
      "stateMutability": "view",
      "type": "function"
    },
    {
      "constant": true,
      "inputs": [],
      "name": "nextId",
      "outputs": [
        {
          "name": "",
          "type": "uint256"
        }
      ],
      "payable": false,
      "stateMutability": "view",
      "type": "function"
    },
    {
      "constant": true,
      "inputs": [
        {
          "name": "",
          "type": "uint256"
        }
      ],
      "name": "ids",
      "outputs": [
        {
          "name": "",
          "type": "uint256"
        }
      ],
      "payable": false,
      "stateMutability": "view",
      "type": "function"
    },
    {
      "constant": false,
      "inputs": [
        {
          "name": "title",
          "type": "string"
        },
        {
          "name": "date",
          "type": "string"
        },
        {
          "name": "description",
          "type": "string"
        },
        {
          "name": "photo",
          "type": "string"
        }
      ],
      "name": "create",
      "outputs": [],
      "payable": false,
      "stateMutability": "nonpayable",
      "type": "function"
    },
    {
      "constant": true,
      "inputs": [
        {
          "name": "id",
          "type": "uint256"
        }
      ],
      "name": "read",
      "outputs": [
        {
          "name": "",
          "type": "uint256"
        },
        {
          "name": "",
          "type": "string"
        },
        {
          "name": "",
          "type": "string"
        },
        {
          "name": "",
          "type": "string"
        },
        {
          "name": "",
          "type": "string"
        }
      ],
      "payable": false,
      "stateMutability": "view",
      "type": "function"
    },
    {
      "constant": true,
      "inputs": [],
      "name": "readAll",
      "outputs": [
        {
          "name": "",
          "type": "uint256[]"
        }
      ],
      "payable": false,
      "stateMutability": "view",
      "type": "function"
    },
    {
      "constant": false,
      "inputs": [
        {
          "name": "id",
          "type": "uint256"
        },
        {
          "name": "title",
          "type": "string"
        },
        {
          "name": "date",
          "type": "string"
        },
        {
          "name": "description",
          "type": "string"
        },
        {
          "name": "photo",
          "type": "string"
        }
      ],
      "name": "update",
      "outputs": [],
      "payable": false,
      "stateMutability": "nonpayable",
      "type": "function"
    },
    {
      "constant": false,
      "inputs": [
        {
          "name": "id",
          "type": "uint256"
        }
      ],
      "name": "destroy",
      "outputs": [],
      "payable": false,
      "stateMutability": "nonpayable",
      "type": "function"
    },
    {
      "constant": true,
      "inputs": [
        {
          "name": "id",
          "type": "uint256"
        }
      ],
      "name": "find",
      "outputs": [
        {
          "name": "",
          "type": "uint256"
        }
      ],
      "payable": false,
      "stateMutability": "view",
      "type": "function"
    }
  ],
  "bytecode": "0x6080604052600160025534801561001557600080fd5b506115fd806100256000396000f3fe608060405234801561001057600080fd5b50600436106100935760003560e01c806378ff6ee31161006657806378ff6ee3146103495780639d118770146105c9578063e3abf585146105f7578063ed2e5a9714610881578063fac333ac14610a7357610093565b80633e530e5b1461009857806341f654f7146100da5780634971ff001461013957806361b8ce8c1461032b575b600080fd5b6100c4600480360360208110156100ae57600080fd5b8101908080359060200190929190505050610ab5565b6040518082815260200191505060405180910390f35b6100e2610b7a565b6040518080602001828103825283818151815260200191508051906020019060200280838360005b8381101561012557808201518184015260208101905061010a565b505050509050019250505060405180910390f35b6101656004803603602081101561014f57600080fd5b8101908080359060200190929190505050610bd2565b6040518086815260200180602001806020018060200180602001858103855289818151815260200191508051906020019080838360005b838110156101b757808201518184015260208101905061019c565b50505050905090810190601f1680156101e45780820380516001836020036101000a031916815260200191505b50858103845288818151815260200191508051906020019080838360005b8381101561021d578082015181840152602081019050610202565b50505050905090810190601f16801561024a5780820380516001836020036101000a031916815260200191505b50858103835287818151815260200191508051906020019080838360005b83811015610283578082015181840152602081019050610268565b50505050905090810190601f1680156102b05780820380516001836020036101000a031916815260200191505b50858103825286818151815260200191508051906020019080838360005b838110156102e95780820151818401526020810190506102ce565b50505050905090810190601f1680156103165780820380516001836020036101000a031916815260200191505b50995050505050505050505060405180910390f35b610333610e75565b6040518082815260200191505060405180910390f35b6105c76004803603608081101561035f57600080fd5b810190808035906020019064010000000081111561037c57600080fd5b82018360208201111561038e57600080fd5b803590602001918460018302840111640100000000831117156103b057600080fd5b91908080601f016020809104026020016040519081016040528093929190818152602001838380828437600081840152601f19601f8201169050808301925050505050505091929192908035906020019064010000000081111561041357600080fd5b82018360208201111561042557600080fd5b8035906020019184600183028401116401000000008311171561044757600080fd5b91908080601f016020809104026020016040519081016040528093929190818152602001838380828437600081840152601f19601f820116905080830192505050505050509192919290803590602001906401000000008111156104aa57600080fd5b8201836020820111156104bc57600080fd5b803590602001918460018302840111640100000000831117156104de57600080fd5b91908080601f016020809104026020016040519081016040528093929190818152602001838380828437600081840152601f19601f8201169050808301925050505050505091929192908035906020019064010000000081111561054157600080fd5b82018360208201111561055357600080fd5b8035906020019184600183028401116401000000008311171561057557600080fd5b91908080601f016020809104026020016040519081016040528093929190818152602001838380828437600081840152601f19601f820116905080830192505050505050509192919290505050610e7b565b005b6105f5600480360360208110156105df57600080fd5b8101908080359060200190929190505050610fa0565b005b61087f600480360360a081101561060d57600080fd5b81019080803590602001909291908035906020019064010000000081111561063457600080fd5b82018360208201111561064657600080fd5b8035906020019184600183028401116401000000008311171561066857600080fd5b91908080601f016020809104026020016040519081016040528093929190818152602001838380828437600081840152601f19601f820116905080830192505050505050509192919290803590602001906401000000008111156106cb57600080fd5b8201836020820111156106dd57600080fd5b803590602001918460018302840111640100000000831117156106ff57600080fd5b91908080601f016020809104026020016040519081016040528093929190818152602001838380828437600081840152601f19601f8201169050808301925050505050505091929192908035906020019064010000000081111561076257600080fd5b82018360208201111561077457600080fd5b8035906020019184600183028401116401000000008311171561079657600080fd5b91908080601f016020809104026020016040519081016040528093929190818152602001838380828437600081840152601f19601f820116905080830192505050505050509192919290803590602001906401000000008111156107f957600080fd5b82018360208201111561080b57600080fd5b8035906020019184600183028401116401000000008311171561082d57600080fd5b91908080601f016020809104026020016040519081016040528093929190818152602001838380828437600081840152601f19601f820116905080830192505050505050509192919290505050611032565b005b6108ad6004803603602081101561089757600080fd5b8101908080359060200190929190505050611113565b6040518086815260200180602001806020018060200180602001858103855289818151815260200191508051906020019080838360005b838110156108ff5780820151818401526020810190506108e4565b50505050905090810190601f16801561092c5780820380516001836020036101000a031916815260200191505b50858103845288818151815260200191508051906020019080838360005b8381101561096557808201518184015260208101905061094a565b50505050905090810190601f1680156109925780820380516001836020036101000a031916815260200191505b50858103835287818151815260200191508051906020019080838360005b838110156109cb5780820151818401526020810190506109b0565b50505050905090810190601f1680156109f85780820380516001836020036101000a031916815260200191505b50858103825286818151815260200191508051906020019080838360005b83811015610a31578082015181840152602081019050610a16565b50505050905090810190601f168015610a5e5780820380516001836020036101000a031916815260200191505b50995050505050505050505060405180910390f35b610a9f60048036036020811015610a8957600080fd5b8101908080359060200190929190505050611443565b6040518082815260200191505060405180910390f35b600080600090505b600080549050811015610b06578260008281548110610ad857fe5b9060005260206000209060050201600001541415610af95780915050610b75565b8080600101915050610abd565b506040517f08c379a00000000000000000000000000000000000000000000000000000000081526004018080602001828103825260168152602001807f6d656d6f727920646f6573206e6f74206578697374210000000000000000000081525060200191505060405180910390fd5b919050565b60606001805480602002602001604051908101604052809291908181526020018280548015610bc857602002820191906000526020600020905b815481526020019060010190808311610bb4575b5050505050905090565b60008181548110610bdf57fe5b9060005260206000209060050201600091509050806000015490806001018054600181600116156101000203166002900480601f016020809104026020016040519081016040528092919081815260200182805460018160011615610100020316600290048015610c915780601f10610c6657610100808354040283529160200191610c91565b820191906000526020600020905b815481529060010190602001808311610c7457829003601f168201915b505050505090806002018054600181600116156101000203166002900480601f016020809104026020016040519081016040528092919081815260200182805460018160011615610100020316600290048015610d2f5780601f10610d0457610100808354040283529160200191610d2f565b820191906000526020600020905b815481529060010190602001808311610d1257829003601f168201915b505050505090806003018054600181600116156101000203166002900480601f016020809104026020016040519081016040528092919081815260200182805460018160011615610100020316600290048015610dcd5780601f10610da257610100808354040283529160200191610dcd565b820191906000526020600020905b815481529060010190602001808311610db057829003601f168201915b505050505090806004018054600181600116156101000203166002900480601f016020809104026020016040519081016040528092919081815260200182805460018160011615610100020316600290048015610e6b5780601f10610e4057610100808354040283529160200191610e6b565b820191906000526020600020905b815481529060010190602001808311610e4e57829003601f168201915b5050505050905085565b60025481565b60006040518060a0016040528060025481526020018681526020018581526020018481526020018381525090806001815401808255809150509060018203906000526020600020906005020160009091929091909150600082015181600001556020820151816001019080519060200190610ef7929190611464565b506040820151816002019080519060200190610f14929190611464565b506060820151816003019080519060200190610f31929190611464565b506080820151816004019080519060200190610f4e929190611464565b505050506001610f5f600254610ab5565b908060018154018082558091505090600182039060005260206000200160009091929091909150555060026000815480929190600101919050555050505050565b6000610fab82610ab5565b905060008181548110610fba57fe5b9060005260206000209060050201600080820160009055600182016000610fe191906114e4565b600282016000610ff191906114e4565b60038201600061100191906114e4565b60048201600061101191906114e4565b50506001818154811061102057fe5b90600052602060002001600090555050565b600061103d86610ab5565b9050846000828154811061104d57fe5b9060005260206000209060050201600101908051906020019061107192919061152c565b50836000828154811061108057fe5b906000526020600020906005020160020190805190602001906110a492919061152c565b5082600082815481106110b357fe5b906000526020600020906005020160030190805190602001906110d792919061152c565b5081600082815481106110e657fe5b9060005260206000209060050201600401908051906020019061110a92919061152c565b50505050505050565b6000606080606080600061112687610ab5565b90506000818154811061113557fe5b9060005260206000209060050201600001546000828154811061115457fe5b90600052602060002090600502016001016000838154811061117257fe5b90600052602060002090600502016002016000848154811061119057fe5b9060005260206000209060050201600301600085815481106111ae57fe5b9060005260206000209060050201600401838054600181600116156101000203166002900480601f0160208091040260200160405190810160405280929190818152602001828054600181600116156101000203166002900480156112545780601f1061122957610100808354040283529160200191611254565b820191906000526020600020905b81548152906001019060200180831161123757829003601f168201915b50505050509350828054600181600116156101000203166002900480601f0160208091040260200160405190810160405280929190818152602001828054600181600116156101000203166002900480156112f05780601f106112c5576101008083540402835291602001916112f0565b820191906000526020600020905b8154815290600101906020018083116112d357829003601f168201915b50505050509250818054600181600116156101000203166002900480601f01602080910402602001604051908101604052809291908181526020018280546001816001161561010002031660029004801561138c5780601f106113615761010080835404028352916020019161138c565b820191906000526020600020905b81548152906001019060200180831161136f57829003601f168201915b50505050509150808054600181600116156101000203166002900480601f0160208091040260200160405190810160405280929190818152602001828054600181600116156101000203166002900480156114285780601f106113fd57610100808354040283529160200191611428565b820191906000526020600020905b81548152906001019060200180831161140b57829003601f168201915b50505050509050955095509550955095505091939590929450565b6001818154811061145057fe5b906000526020600020016000915090505481565b828054600181600116156101000203166002900490600052602060002090601f016020900481019282601f106114a557805160ff19168380011785556114d3565b828001600101855582156114d3579182015b828111156114d25782518255916020019190600101906114b7565b5b5090506114e091906115ac565b5090565b50805460018160011615610100020316600290046000825580601f1061150a5750611529565b601f01602090049060005260206000209081019061152891906115ac565b5b50565b828054600181600116156101000203166002900490600052602060002090601f016020900481019282601f1061156d57805160ff191683800117855561159b565b8280016001018555821561159b579182015b8281111561159a57825182559160200191906001019061157f565b5b5090506115a891906115ac565b5090565b6115ce91905b808211156115ca5760008160009055506001016115b2565b5090565b9056fea165627a7a72305820af232aab0fcd012ae6329a27879c5f524a540e93b4b6d7429071787637b608730029",
  "source": "pragma solidity ^0.5.0;\r\n\r\ncontract Memory {\r\n  struct mymemory {\r\n    uint id;\r\n    string title;\r\n\tstring date;\r\n\tstring description;\r\n\tstring photo;\r\n  }\r\n  mymemory[] public memories;\r\n  uint[] public ids ;\r\n  uint public nextId = 1;\r\n\r\n  function create(string memory title, string memory date, string memory description, string memory photo) public {\r\n    memories.push(mymemory(nextId, title, date, description, photo));\r\n\tids.push(find(nextId));\r\n    nextId++;\r\n\t\r\n  }\r\n\r\n  function read(uint id) view public returns(uint, string memory, string memory, string memory, string memory) {\r\n    uint i = find(id);\r\n    return(memories[i].id, memories[i].title, memories[i].date, memories[i].description,  memories[i].photo);\r\n  }\r\n  \r\n  function readAll() view public returns(  uint[] memory) { \r\n\treturn ids;\r\n  }\r\n\r\n  function update(uint id, string memory title, string memory date, string memory description, string memory photo) public {\r\n    uint i = find(id);\r\n    memories[i].title = title;\r\n\tmemories[i].date = date;\r\n    memories[i].description =description ;\r\n    memories[i].photo = photo;\r\n  }\r\n\r\n  function destroy(uint id) public {\r\n    uint i = find(id);\r\n    delete memories[i];\r\n\tdelete ids[i];\r\n  }\r\n\r\n  function find(uint id) view public returns(uint ) {\r\n    for(uint i = 0; i < memories.length; i++) {\r\n      if(memories[i].id == id) {\r\n        return i;\r\n      }\r\n    }\r\n    revert('memory does not exist!');\r\n  }\r\n  \r\n\r\n\r\n}\r\n",
  "sourcePath": "C:/Users/Asus/Desktop/memories/contracts/memory.sol",
  "compiler": {
    "name": "solc",
    "version": "0.5.8+commit.23d335f2.Emscripten.clang"
  },
  "schemaVersion": "3.0.16",
  "updatedAt": "2019-10-17T02:21:54.868Z",
  "devdoc": {
    "methods": {}
  },
  "userdoc": {
    "methods": {}
  }
}