{
  "contractName": "Memory",
  "abi": [
    {
      "constant": true,
      "inputs": [
        {
          "name": "",
          "type": "uint256"
        }
      ],
      "name": "memories",
      "outputs": [
        {
          "name": "id",
          "type": "uint256"
        },
        {
          "name": "title",
          "type": "string"
        },
        {
          "name": "date",
          "type": "string"
        },
        {
          "name": "description",
          "type": "string"
        },
        {
          "name": "photo",
          "type": "string"
        }
      ],
      "payable": false,
      "stateMutability": "view",
      "type": "function"
    },
    {
      "constant": true,
      "inputs": [],
      "name": "nextId",
      "outputs": [
        {
          "name": "",
          "type": "uint256"
        }
      ],
      "payable": false,
      "stateMutability": "view",
      "type": "function"
    },
    {
      "constant": false,
      "inputs": [
        {
          "name": "title",
          "type": "string"
        },
        {
          "name": "date",
          "type": "string"
        },
        {
          "name": "description",
          "type": "string"
        },
        {
          "name": "photo",
          "type": "string"
        }
      ],
      "name": "create",
      "outputs": [],
      "payable": false,
      "stateMutability": "nonpayable",
      "type": "function"
    },
    {
      "constant": true,
      "inputs": [
        {
          "name": "id",
          "type": "uint256"
        }
      ],
      "name": "read",
      "outputs": [
        {
          "name": "",
          "type": "uint256"
        },
        {
          "name": "",
          "type": "string"
        },
        {
          "name": "",
          "type": "string"
        },
        {
          "name": "",
          "type": "string"
        },
        {
          "name": "",
          "type": "string"
        }
      ],
      "payable": false,
      "stateMutability": "view",
      "type": "function"
    },
    {
      "constant": false,
      "inputs": [
        {
          "name": "id",
          "type": "uint256"
        },
        {
          "name": "title",
          "type": "string"
        },
        {
          "name": "date",
          "type": "string"
        },
        {
          "name": "description",
          "type": "string"
        },
        {
          "name": "photo",
          "type": "string"
        }
      ],
      "name": "update",
      "outputs": [],
      "payable": false,
      "stateMutability": "nonpayable",
      "type": "function"
    },
    {
      "constant": false,
      "inputs": [
        {
          "name": "id",
          "type": "uint256"
        }
      ],
      "name": "destroy",
      "outputs": [],
      "payable": false,
      "stateMutability": "nonpayable",
      "type": "function"
    }
  ],
  "bytecode": "0x60806040526001805534801561001457600080fd5b5061141f806100246000396000f3fe608060405234801561001057600080fd5b50600436106100625760003560e01c80634971ff001461006757806361b8ce8c1461025957806378ff6ee3146102775780639d118770146104f7578063e3abf58514610525578063ed2e5a97146107af575b600080fd5b6100936004803603602081101561007d57600080fd5b81019080803590602001909291905050506109a1565b6040518086815260200180602001806020018060200180602001858103855289818151815260200191508051906020019080838360005b838110156100e55780820151818401526020810190506100ca565b50505050905090810190601f1680156101125780820380516001836020036101000a031916815260200191505b50858103845288818151815260200191508051906020019080838360005b8381101561014b578082015181840152602081019050610130565b50505050905090810190601f1680156101785780820380516001836020036101000a031916815260200191505b50858103835287818151815260200191508051906020019080838360005b838110156101b1578082015181840152602081019050610196565b50505050905090810190601f1680156101de5780820380516001836020036101000a031916815260200191505b50858103825286818151815260200191508051906020019080838360005b838110156102175780820151818401526020810190506101fc565b50505050905090810190601f1680156102445780820380516001836020036101000a031916815260200191505b50995050505050505050505060405180910390f35b610261610c44565b6040518082815260200191505060405180910390f35b6104f56004803603608081101561028d57600080fd5b81019080803590602001906401000000008111156102aa57600080fd5b8201836020820111156102bc57600080fd5b803590602001918460018302840111640100000000831117156102de57600080fd5b91908080601f016020809104026020016040519081016040528093929190818152602001838380828437600081840152601f19601f8201169050808301925050505050505091929192908035906020019064010000000081111561034157600080fd5b82018360208201111561035357600080fd5b8035906020019184600183028401116401000000008311171561037557600080fd5b91908080601f016020809104026020016040519081016040528093929190818152602001838380828437600081840152601f19601f820116905080830192505050505050509192919290803590602001906401000000008111156103d857600080fd5b8201836020820111156103ea57600080fd5b8035906020019184600183028401116401000000008311171561040c57600080fd5b91908080601f016020809104026020016040519081016040528093929190818152602001838380828437600081840152601f19601f8201169050808301925050505050505091929192908035906020019064010000000081111561046f57600080fd5b82018360208201111561048157600080fd5b803590602001918460018302840111640100000000831117156104a357600080fd5b91908080601f016020809104026020016040519081016040528093929190818152602001838380828437600081840152601f19601f820116905080830192505050505050509192919290505050610c4a565b005b6105236004803603602081101561050d57600080fd5b8101908080359060200190929190505050610d39565b005b6107ad600480360360a081101561053b57600080fd5b81019080803590602001909291908035906020019064010000000081111561056257600080fd5b82018360208201111561057457600080fd5b8035906020019184600183028401116401000000008311171561059657600080fd5b91908080601f016020809104026020016040519081016040528093929190818152602001838380828437600081840152601f19601f820116905080830192505050505050509192919290803590602001906401000000008111156105f957600080fd5b82018360208201111561060b57600080fd5b8035906020019184600183028401116401000000008311171561062d57600080fd5b91908080601f016020809104026020016040519081016040528093929190818152602001838380828437600081840152601f19601f8201169050808301925050505050505091929192908035906020019064010000000081111561069057600080fd5b8201836020820111156106a257600080fd5b803590602001918460018302840111640100000000831117156106c457600080fd5b91908080601f016020809104026020016040519081016040528093929190818152602001838380828437600081840152601f19601f8201169050808301925050505050505091929192908035906020019064010000000081111561072757600080fd5b82018360208201111561073957600080fd5b8035906020019184600183028401116401000000008311171561075b57600080fd5b91908080601f016020809104026020016040519081016040528093929190818152602001838380828437600081840152601f19601f820116905080830192505050505050509192919290505050610db0565b005b6107db600480360360208110156107c557600080fd5b8101908080359060200190929190505050610e91565b6040518086815260200180602001806020018060200180602001858103855289818151815260200191508051906020019080838360005b8381101561082d578082015181840152602081019050610812565b50505050905090810190601f16801561085a5780820380516001836020036101000a031916815260200191505b50858103845288818151815260200191508051906020019080838360005b83811015610893578082015181840152602081019050610878565b50505050905090810190601f1680156108c05780820380516001836020036101000a031916815260200191505b50858103835287818151815260200191508051906020019080838360005b838110156108f95780820151818401526020810190506108de565b50505050905090810190601f1680156109265780820380516001836020036101000a031916815260200191505b50858103825286818151815260200191508051906020019080838360005b8381101561095f578082015181840152602081019050610944565b50505050905090810190601f16801561098c5780820380516001836020036101000a031916815260200191505b50995050505050505050505060405180910390f35b600081815481106109ae57fe5b9060005260206000209060050201600091509050806000015490806001018054600181600116156101000203166002900480601f016020809104026020016040519081016040528092919081815260200182805460018160011615610100020316600290048015610a605780601f10610a3557610100808354040283529160200191610a60565b820191906000526020600020905b815481529060010190602001808311610a4357829003601f168201915b505050505090806002018054600181600116156101000203166002900480601f016020809104026020016040519081016040528092919081815260200182805460018160011615610100020316600290048015610afe5780601f10610ad357610100808354040283529160200191610afe565b820191906000526020600020905b815481529060010190602001808311610ae157829003601f168201915b505050505090806003018054600181600116156101000203166002900480601f016020809104026020016040519081016040528092919081815260200182805460018160011615610100020316600290048015610b9c5780601f10610b7157610100808354040283529160200191610b9c565b820191906000526020600020905b815481529060010190602001808311610b7f57829003601f168201915b505050505090806004018054600181600116156101000203166002900480601f016020809104026020016040519081016040528092919081815260200182805460018160011615610100020316600290048015610c3a5780601f10610c0f57610100808354040283529160200191610c3a565b820191906000526020600020905b815481529060010190602001808311610c1d57829003601f168201915b5050505050905085565b60015481565b60006040518060a0016040528060015481526020018681526020018581526020018481526020018381525090806001815401808255809150509060018203906000526020600020906005020160009091929091909150600082015181600001556020820151816001019080519060200190610cc6929190611286565b506040820151816002019080519060200190610ce3929190611286565b506060820151816003019080519060200190610d00929190611286565b506080820151816004019080519060200190610d1d929190611286565b5050505060016000815480929190600101919050555050505050565b6000610d44826111c1565b905060008181548110610d5357fe5b9060005260206000209060050201600080820160009055600182016000610d7a9190611306565b600282016000610d8a9190611306565b600382016000610d9a9190611306565b600482016000610daa9190611306565b50505050565b6000610dbb866111c1565b90508460008281548110610dcb57fe5b90600052602060002090600502016001019080519060200190610def92919061134e565b508360008281548110610dfe57fe5b90600052602060002090600502016002019080519060200190610e2292919061134e565b508260008281548110610e3157fe5b90600052602060002090600502016003019080519060200190610e5592919061134e565b508160008281548110610e6457fe5b90600052602060002090600502016004019080519060200190610e8892919061134e565b50505050505050565b60006060806060806000610ea4876111c1565b905060008181548110610eb357fe5b90600052602060002090600502016000015460008281548110610ed257fe5b906000526020600020906005020160010160008381548110610ef057fe5b906000526020600020906005020160020160008481548110610f0e57fe5b906000526020600020906005020160030160008581548110610f2c57fe5b9060005260206000209060050201600401838054600181600116156101000203166002900480601f016020809104026020016040519081016040528092919081815260200182805460018160011615610100020316600290048015610fd25780601f10610fa757610100808354040283529160200191610fd2565b820191906000526020600020905b815481529060010190602001808311610fb557829003601f168201915b50505050509350828054600181600116156101000203166002900480601f01602080910402602001604051908101604052809291908181526020018280546001816001161561010002031660029004801561106e5780601f106110435761010080835404028352916020019161106e565b820191906000526020600020905b81548152906001019060200180831161105157829003601f168201915b50505050509250818054600181600116156101000203166002900480601f01602080910402602001604051908101604052809291908181526020018280546001816001161561010002031660029004801561110a5780601f106110df5761010080835404028352916020019161110a565b820191906000526020600020905b8154815290600101906020018083116110ed57829003601f168201915b50505050509150808054600181600116156101000203166002900480601f0160208091040260200160405190810160405280929190818152602001828054600181600116156101000203166002900480156111a65780601f1061117b576101008083540402835291602001916111a6565b820191906000526020600020905b81548152906001019060200180831161118957829003601f168201915b50505050509050955095509550955095505091939590929450565b600080600090505b6000805490508110156112125782600082815481106111e457fe5b90600052602060002090600502016000015414156112055780915050611281565b80806001019150506111c9565b506040517f08c379a00000000000000000000000000000000000000000000000000000000081526004018080602001828103825260168152602001807f6d656d6f727920646f6573206e6f74206578697374210000000000000000000081525060200191505060405180910390fd5b919050565b828054600181600116156101000203166002900490600052602060002090601f016020900481019282601f106112c757805160ff19168380011785556112f5565b828001600101855582156112f5579182015b828111156112f45782518255916020019190600101906112d9565b5b50905061130291906113ce565b5090565b50805460018160011615610100020316600290046000825580601f1061132c575061134b565b601f01602090049060005260206000209081019061134a91906113ce565b5b50565b828054600181600116156101000203166002900490600052602060002090601f016020900481019282601f1061138f57805160ff19168380011785556113bd565b828001600101855582156113bd579182015b828111156113bc5782518255916020019190600101906113a1565b5b5090506113ca91906113ce565b5090565b6113f091905b808211156113ec5760008160009055506001016113d4565b5090565b9056fea165627a7a72305820e023a4d05ec0d501e29c90fd2b7d15e43d3de33a95082093863c3b67df22c3f80029",
  "source": "pragma solidity ^0.5.0;\r\n\r\ncontract Memory {\r\n  struct mymemory {\r\n    uint id;\r\n    string title;\r\n\tstring date;\r\n\tstring description;\r\n\tstring photo;\r\n  }\r\n  mymemory[] public memories;\r\n  uint public nextId = 1;\r\n\r\n  function create(string memory title, string memory date, string memory description, string memory photo) public {\r\n    memories.push(mymemory(nextId, title, date, description, photo));\r\n    nextId++;\r\n  }\r\n\r\n  function read(uint id) view public returns(uint, string memory, string memory, string memory, string memory) {\r\n    uint i = find(id);\r\n    return(memories[i].id, memories[i].title, memories[i].date, memories[i].description,  memories[i].photo);\r\n  }\r\n\r\n  function update(uint id, string memory title, string memory date, string memory description, string memory photo) public {\r\n    uint i = find(id);\r\n    memories[i].title = title;\r\n\tmemories[i].date = date;\r\n    memories[i].description =description ;\r\n    memories[i].photo = photo;\r\n  }\r\n\r\n  function destroy(uint id) public {\r\n    uint i = find(id);\r\n    delete memories[i];\r\n  }\r\n\r\n  function find(uint id) view internal returns(uint) {\r\n    for(uint i = 0; i < memories.length; i++) {\r\n      if(memories[i].id == id) {\r\n        return i;\r\n      }\r\n    }\r\n    revert('memory does not exist!');\r\n  }\r\n\r\n}\r\n",
  "sourcePath": "C:/Users/Asus/Desktop/memories/contracts/memory.sol",
  "compiler": {
    "name": "solc",
    "version": "0.5.8+commit.23d335f2.Emscripten.clang"
  },
  "schemaVersion": "3.0.16",
  "updatedAt": "2019-10-16T15:10:29.855Z",
  "devdoc": {
    "methods": {}
  },
  "userdoc": {
    "methods": {}
  }
}